:1000000067EF09F00000000000EF00F000000000C2
:0A0010000000000000000000F3D71C
:10001C00240E0C6E1A0E0D6E0D2EFED70C2EFCD768
:04002C0000001200BE
:0E003000510E0D6E0D2EFED7000000001200C6
:0C003E00000000000000000000001200A4
:10004A000B840BAE30EF00F0010E036E026A016AF8
:0A005A00006A0A360232FF0E12009F
:080064000AAE029E000E12001C
:10006C000001A2BF02D0839601D08386A2BD02D02C
:10007C00839401D08384A2BB02D0839201D083826B
:10008C00A2B902D0839001D083805FB002D0838864
:10009C0001D08398838ACDDF839AA2B702D083964E
:1000AC0001D08386A2B502D0839401D08384A2B3FD
:1000BC0002D0839201D08382A2B102D0839001D06E
:1000CC0083805FB002D0838801D08398838AB1DFAC
:0E00DC00839A5FA002D09CDF01D0A4DF120047
:0E00EA00026A016A006A086A036A000E1200C8
:1000F8000B820BAE86EF00F00368026801680068A7
:080108000A360232FF0E12005C
:100110000CB0CAEF00F00CA270EF01F00E6A000EF6
:100120000264E1EF00F0F00E0214D8A4ACEF00F08E
:10013000023A01380F0B02260138F00B016E00382D
:100140000F0B01260038F00B006E08380F0B00264D
:100150000838F00B086E0E84D89002BEC5EF00F090
:1001600008360036013602360E2A02BEC5EF00F010
:1001700008360036013602360E2A02BEC5EF00F000
:1001800008360036013602360E2A0E50036466EF3A
:1001900001F0035E0BBC08AE6BEF01F0D880800E5F
:1001A00008640030000E002201220222D8A06BEF6A
:1001B00001F0023201320032034A70EF01F06BEFBE
:1001C00001F001C002F000C001F008C000F0086AB0
:1001D000000E0E86026418EF01F0F00E0214D8A48F
:1001E00000EF01F0023A01380F0B02260138F00B44
:1001F000016E00380F0B01260038F00B006E0E84E4
:10020000D89002BEC5EF00F00036013602360E2A45
:1002100002BEC5EF00F00036013602360E2A02BEDD
:10022000C5EF00F00036013602360E2AC5EF00F0A9
:1002300001C002F000C001F0006A000E0E960E88A8
:10024000026445EF01F0F00E0214D8A430EF01F083
:10025000023A01380F0B02260138F00B016E0E84B2
:10026000D89002BEC5EF00F0013602360E2A02BE5B
:10027000C5EF00F0013602360E2A02BEC5EF00F0CF
:10028000013602360E2AC5EF00F001C002F0016A05
:10029000000E0E86026475EF01F0F00E0214D8A471
:1002A00054EF01F0023A0E84D89002BEC5EF00F080
:1002B00002360E2A02BEC5EF00F002360E2A02BE3A
:1002C000C5EF00F002360E2AC5EF00F0010E0C6EED
:1002D000BCDE78EF01F0020E0C6EC4DE78EF01F0A8
:1002E000040E0C6E09DF78EF01F0080E0C6EFDDED7
:0202F0001200FA
:1002F2000B800BAE85EF01F0026A0AAEFF0E026EB2
:0C030200016E006E0A360232FF0E12007F
:0C030E005F909EC0A2F0ABDE5F8012008A
:10031A009EC004F09FC005F004C002F005C003F0BF
:10032A00044A052AA0C000F0A1C001F00001A04BB8
:10033A00A12B00C0E9FF01C0EAFF02C0E1FF03C030
:10034A00E2FFEECFE6FF02C0E9FF03C0EAFFEE528A
:0E035A0001E0E2D79EC000F09FC001F012004B
:100368000A6A0350D8A40A800750D8A40A820A50FF
:10037800D8B417EF02F0030AD8B4D0EF01F00AB0EE
:10038800CBEF01F006AE15EF02F013EF02F002AE6C
:1003980013EF02F015EF02F00250800B0A6E029E76
:1003A8000650800B069E0A18D8B4E1EF01F00A50F7
:1003B800D8B413EF02F015EF02F00750035CD8B47D
:1003C800EBEF01F0D8A007EF02F00DEF02F00650B6
:1003D800025CD8B4F5EF01F0D8A007EF02F00DEFFA
:1003E80002F00550015CD8B4FFEF01F0D8A007EF88
:1003F80002F00DEF02F00450005CD8B417EF02F0E1
:10040800D8B00DEF02F00A52D8B415EF02F013EF8E
:1004180002F00A52D8B413EF02F015EF02F0D880B8
:0E0428001200D8901200D880D8841200120062
:080436000B6A0B86FF0E120099
:0E043E00230E0D6E0D2EFED7000000001200E2
:10044C000D6A086A0050D8B4000C04180A6E0ABE73
:10045C000D1E0B6A04AE02D0041E042A00AE02D09C
:10046C00001E002A005004100A6E0ABE1FD0045051
:10047C00085E003600340836045008260036060E96
:10048C000C6E00340836045000B0085E00A008263C
:10049C0000360C2EF6D700A008260BB015D00DAEEA
:1004AC00000C001E002A081E082A000C04AE09D0FD
:1004BC0000BE04D00050086E006AF1D7006A002A12
:1004CC00000C001E0B2AD3D7082A0450085CD8A4B1
:0E04DC00E6D7086A002A00AEE2D7FF0C120035
:1004EA00086A096A000E07620364FAEF02F0025012
:1004FA0006180A6E075003267E0ED8A08BEF02F06C
:10050A00035ED8B0FEEF02F08FEF02F0035ED8A0D0
:10051A0002EF03F0028E068E02C00EF001C00BF04D
:10052A0000C00DF000500402F4CF0CF00150050297
:10053A00F4CF00F0F3CF08F00402F3500C26F45085
:10054A000822000E00220D500502F3500C26F4502A
:10055A000822000E002202500402F3500826F4502A
:10056A00002202500502016A000E0122F350002601
:10057A00F45001220D500602F3500826F4500022CE
:10058A00026A000E012202220B500602F3500026D4
:10059A00F4500122000E02220E500602F3500126E8
:1005AA00F450022202BEE2EF02F0083600360136AB
:1005BA0002360306D8B402EF03F0F5EF02F0D88052
:1005CA00800E08640030000E002201220222D8A008
:1005DA00F5EF02F0023201320032034AFEEF02F076
:1005EA000AAE029E000E04EF03F0010E79DD04EF5D
:1005FA0003F0020E7CDD04EF03F0040E21DD12008D
:10060A000C6A0E6A0250D8A41EEF03F001C002F071
:10061A0000C001F0006A0E860250D8A41EEF03F053
:10062A0001C002F0016A0E960E880250D8B430EF6B
:10063A0003F00E50035ED8A4D8A035EF03F0D8908B
:10064A0002BE3AEF03F0003601360236032E25EFDA
:10065A0003F035EF03F0010E0C6E42DD3DEF03F0BF
:10066A00020E0C6EEDDC3DEF03F0040E0C6EF5DCB1
:02067A0012006C
:10067C000900F5CFE6FF0006FBE10106F9E11200E7
:10068C0010D0800E0001916F1AD0C00E916F17D050
:10069C00940E916F14D0D40E916F11D0800E916F77
:1006AC000ED000019151010AECE09151020AEDE0EB
:1006BC009151030AEDE09151040AEDE0EFD7920558
:1006CC00006E9151002600C091F000C0A2F0C8DC71
:1006DC005F90606B60519325E96E000E9421EA6E79
:1006EC00EE520BE060519325E96E000E9421EA6EF8
:0E06FC00EECF9EF006DE602BEDD75F80120081
:10070A00959A95989590959295949596839A8398AB
:10071A0083968394839283907CDC7BDC7ADC83826D
:10072A008380838A87DC839A74DC838A83DC839A56
:10073A0070DC838A7FDC839A6CDC8390838A7ADC20
:10074A00839A67DC838A76DC839A83928386838A98
:10075A0071DC839A5EDC83968380838A6BDC839A5E
:10076A008390838A67DC839A54DC838A63DC839A66
:10077A008380838A5FDC839A4CDC8390838A5ADC89
:10078A00839A8386838483828380838A53DC839AD1
:06079A0040DC5F8012004C
:1007A000FF0E0001696FFF0E6A6FFF0E6B6FFF0E89
:1007B0006C6FC26A2D1C006E0050C116070EC0126D
:0607C000C08EC280120091
:1007C6000B6A0350D8B429EF04F002500A6E028E69
:1007D6008E0E035E03AE2DEF04F0036C080E035C71
:1007E600D8A008EF04F0036E013602C001F0026AD9
:1007F600080E035CD8A008EF04F0036E0136016A08
:100806000350D8A4D89012EF04F00350D8B412EFD6
:1008160004F0D89002320132032E0CEF04F00BBC28
:1008260001A01FEF04F0D8A01FEF04F0012AD8B4EE
:10083600022A02BE3CEF04F00AAE41EF04F0021EAB
:10084600011E012AD8B4022A41EF04F0026A016AA5
:1008560041EF04F00B800BAE45EF04F0026A0AAEDE
:1008660045EF04F0FF0E026E016E0A36023245EFC6
:1008760004F0010E0C6E3ADD47EF04F0000E0C6E2C
:1008860047EF04F0FF0E0C6E0150006E0250016E31
:0208960012004E
:100898000450000A12E10550000A0FE10650000A50
:1008A8000CE10750000A09E1FF0E006EFF0E016E11
:1008B8007F0E026EFF0E036EA7D0086A096A075002
:1008C800D8B4F7EF04F00350D8B4FBEF04F00250AB
:1008D80006180A6E028E068E0E6A02C008F001C063
:1008E8000CF000C00DF004500D5E0550D8A0053C7A
:1008F8000C5E0650D8A0063C085E086A0C6A0D6AB1
:10090800D8A08EEF04F0D8900232013200320832BB
:10091800010E0E6E0750035ED8A09BEF04F07E0E0A
:100928000E240326D8B000EF05F0A1EF04F07E0EE8
:100938000E240326D8A005EF05F0180E0B6E0D3611
:100948000C3608360036013602360E360450005E84
:100958000550D8A0053C015E0650D8A0063C025EB2
:1009680006340E120EA0BCEF04F00D80C7EF04F0A1
:10097800045000260550D8B0053C01260650D8B0D2
:10098800062802260D900B2EA3EF04F0EDEF04F0DD
:10099800D8900036013602360E360450005E0550F7
:1009A800D8A0053C015E0650D8A0063C025E06347D
:1009B8000E10010B0D26D8B00C2AD8B4082AD8A4DA
:1009C800EDEF04F008320C320D32032AD8B400EFF0
:1009D80005F00AAE089E0850026E0C50016E0D50CC
:1009E800006E08EF05F0010E22DD08EF05F0020E9B
:1009F80075EC00F008EF05F0040E7CEC00F008EF51
:0A0A080005F0080E25EC00F01200C6
:100A1200025006180E6E086A096A0B6A03500764D0
:100A2200FCEF05F006500A6E068E028E03500B6E26
:100A32000750036E000E0B644CEF05F00B50075E7F
:100A4200D8B4EDEF05F0070E0764BBEF05F0075EC3
:100A520000C008F001C000F002C001F0026A074EB7
:100A6200EDEF05F0076490EF05F0075E00C008F0B7
:100A720001C000F0016A074EEDEF05F007646EEF6A
:100A820005F0075E00C008F0006A074EEDEF05F0C2
:100A9200076455EF05F00AC002F005C001F004C07A
:100AA20000F0086A19EF07F0030E076460EF05F023
:100AB200075E08380F0B086E074EEDEF05F0D89071
:100AC2000832074EEDEF05F0D8900832074EEDEFF1
:100AD20005F0D8900832EDEF05F0030E07647FEFC2
:100AE20005F0075E08380F0B086E0038F00B082679
:100AF20000380F0B006E074EEDEF05F0D890003274
:100B02000832074EEDEF05F0D89000320832074E5A
:100B1200EDEF05F0D89000320832EDEF05F0030E4C
:100B22000764A7EF05F0075E08380F0B086E003860
:100B3200F00B082600380F0B006E0138F00B002670
:100B420001380F0B016E074EEDEF05F0D890013220
:100B520000320832074EEDEF05F0D8900132003234
:100B62000832074EEDEF05F0D8900132003208321C
:100B7200EDEF05F0030E0764D8EF05F0075E0838C5
:100B82000F0B086E0038F00B082600380F0B006EB2
:100B92000138F00B002601380F0B016E0238F00B02
:100BA200012602380F0B026E074EEDEF05F0D890CA
:100BB2000232013200320832074EEDEF05F0D890D2
:100BC2000232013200320832074EEDEF05F0D890C2
:100BD2000232013200320832096A000E0EAEE1EF33
:100BE20006F0081E001E011E021E082A0022012213
:100BF2000222E1EF06F00750D8A402EF06F019EF47
:100C020007F0096A02C00AF0028E068E0750035CE2
:100C1200076ED8B4D4EF06F0070E0764A2EF06F011
:100C2200075E0450096E0550046E0650056E066A92
:100C3200074ED4EF06F0070E076477EF06F0075E63
:100C42000450096E0550046E056A074ED4EF06F093
:100C5200070E076455EF06F0075E0450096E046A3A
:100C6200074ED4EF06F0070E07643CEF06F00AC009
:100C720002F019EF07F0030E076447EF06F0075E74
:100C820009380F0B096E074ED4EF06F0D8900932DF
:100C9200074ED4EF06F0D8900932074ED4EF06F093
:100CA200D8900932D4EF06F0030E076466EF06F01F
:100CB200075E09380F0B096E0438F00B0926043859
:100CC2000F0B046E074ED4EF06F0D89004320932AF
:100CD200074ED4EF06F0D89004320932074ED4EF13
:100CE20006F0D89004320932D4EF06F0030E0764FE
:100CF2008EEF06F0075E09380F0B096E0438F00B11
:100D0200092604380F0B046E0538F00B042605384B
:100D12000F0B056E074ED4EF06F0D8900532043261
:100D22000932074ED4EF06F0D89005320432093268
:100D3200074ED4EF06F0D890053204320932D4EFD0
:100D420006F0030E0764BFEF06F0075E09380F0BCB
:100D5200096E0438F00B092604380F0B046E0538AF
:100D6200F00B042605380F0B056E0638F00B05262E
:100D720006380F0B066E074ED4EF06F0D8900632F7
:100D8200053204320932074ED4EF06F0D89006320B
:100D9200053204320932074ED4EF06F0D8900632FB
:100DA200053204320932086A000E0EAEE1EF06F097
:100DB200091E041E051E061E092A042205220622F9
:100DC2000950082604500022055001220650022232
:100DD2000EBEF8EF06F0D8A007EF07F0023201329C
:100DE20000320832033E07EF07F013EF07F0D8B0E6
:100DF2000DEF07F0000E081E001E011E021E082A3B
:100E02000022012202220A7E0DEF07F0010E0C6E73
:100E120088EC00F01BEF07F0020E0C6E88EC00F07D
:100E22001BEF07F0040E0C6E7CEC00F01BEF07F0DA
:060E3200000E0C6E120020
:100E3800C26A2D1C006E0050C116070EC012C08E6B
:100E480060C000F000360090003600900050C212DA
:100E5800C2801FEC02F0C282C2A201D0FDD7C4CF6B
:100E680001F0006AC3500012000E0112C290120075
:100E78000050086E0150006E016A026A036A0B6A2C
:100E88000C6A960E036E0A6A00C001F008C000F0F2
:0A0E9800086A026A05EC03F012007C
:100EA20000019C6B9D6B91C098F092C099F093C029
:100EB2009AF094C09BF09B51FF0A08E19A51FF0AF5
:100EC20005E19951FF0A02E19851FF0A0DE195C02F
:100ED2009EF096C09FF0290EA06F000EA16F8DECC0
:100EE20001F0030E006EF1D1010E606F9AAF0ED0C9
:100EF200800E9A19006E00C09AF0602B95C0E1FF37
:100F020096C0E2FF2D0EE66E954B962B000E006EFC
:100F12009B1908E100509A1905E10050991902E164
:100F22009851000A0CE195C09EF096C09FF02E0EDB
:100F3200A06F000EA16F8DEC01F0006AC6D19B512B
:100F4200FF0A08E19A51000A05E19951000A02E1FB
:100F52009851000A0DE195C09EF096C09FF0300EA8
:100F6200A06F000EA16F8DEC01F060C000F0ADD15A
:100F7200000E046E000E056E000E066E7F0E076EEA
:100F820098C000F099C001F09AC002F09BC003F033
:100F9200B4EC01F0010ED8B0000E006E00521CE05D
:100FA20098C000F099C001F09AC002F09BC003F013
:100FB200000E046E000E056E200E066E820E076E87
:100FC20075EC02F000C098F001C099F002C09AF0EE
:100FD20003C09BF09D07CCD7000E046E000E056E79
:100FE200200E066E820E076E98C000F099C001F0C6
:100FF2009AC002F09BC003F0B4EC01F0000ED8B02E
:10100200010E006E00521CE098C000F099C001F081
:101012009AC002F09BC003F0CD0E046ECC0E056E9A
:101022004C0E066E7B0E076E75EC02F000C098F057
:1010320001C099F002C09AF003C09BF09D2BCCD75F
:10104200FF0E9815086EFF0E9915096E7F0E9A1500
:101052000A6E000E9B150B6E08C004F009C005F065
:101062000AC006F00BC007F00436049005360636B7
:101072000736000E9815006E000E9915016E000ECF
:101082009A15026EFF0E9B15036E00C098F001C008
:1010920099F002C09AF003C09BF004509811006EC0
:1010A20005509911016E06509A11026E07509B115C
:1010B200036E00C098F001C099F002C09AF003C01C
:1010C2009BF07F0E9B5D006E00C097F0010E9B6F40
:1010D20000C004F098C000F099C001F09AC002F07C
:1010E2009BC003F0045007E0003600900136023640
:1010F2000336FF0FF8D700C098F001C099F002C084
:101102009AF003C09BF095C0E1FF96C0E2FF9B51AD
:10111200300FE66E954B962B800E9D19006E800E59
:10112200010A005C08E3800E060A006E800E9D191B
:10113200005C01E30AD095C0E1FF96C0E2FF2E0EEB
:10114200E66E954B962B010E9C6F060E976F97518C
:10115200000A54E09B6B98C000F099C001F09AC05D
:1011620002F09BC003F000360090013602360336CF
:101172000036009001360236033698510026995106
:1011820001229A5102229B51032200C098F001C011
:1011920099F002C09AF003C09BF098C000F099C089
:1011A20001F09AC002F09BC003F0003600900136B5
:1011B2000236033600C098F001C099F002C09AF0DE
:1011C20003C09BF095C0E1FF96C0E2FF9B51300F38
:1011D200E66E954B962B9C51000A0EE19D079D51A0
:1011E200000A0AE195C0E1FF96C0E2FF2E0EE66E0C
:1011F200954B962B010E9C6F9707A9D7FF0E95254D
:10120200E96EFF0E9621EA6EEE50300A05E1010EFC
:10121200955F000E965BF2D7FF0E9525E96EFF0EE5
:101222009621EA6EEE502E0A04E1010E955F000E41
:10123200965B9D51000A43E095C0E1FF96C0E2FF34
:10124200650EE66E954B962B800E9D19006E800EF4
:10125200000A005C0BE295C0E1FF96C0E2FF2D0E92
:10126200E66E954B962B9D5100089D6F9DC097F0A1
:10127200800E090A006E800E9D19005C0FE20A0EB4
:10128200046E97C000F026EC02F095C0E1FF96C014
:10129200E2FF0050300FE66E954B962B0A0E046E5D
:1012A20097C000F026EC02F008C000F095C0E1FF04
:1012B20096C0E2FF0050300FE66E954B962B95C01C
:0C12C200E1FF96C0E2FFE66A006A12003D
:1012CE000DEC0BF0956AD0EC03F085EC03F00D0EEF
:1012DE000B6E780E0C6EA50E0D6E0D2EFED70C2E0F
:1012EE00FCD70B2EFAD700000000010EA26F36ECD1
:1012FE0000F0010E916F050E926F1F0E936F000E90
:10130E00946F46EC03F0190E0B6EF00E0C6E4D0E34
:10131E000D6E0D2EFED70C2EFCD70B2EFAD700001D
:10132E000000010EA26F36EC00F00C0EA26F36EC30
:10133E0000F0606B7ADD00C01DF001C01EF0010EE2
:10134E000001606F72DD00C08FF001C090F08FC0A1
:10135E0027F090C028F01DC000F01EC001F085DD02
:10136E00000E046E400E056E1C0E066E8B0E076E82
:10137E0075EC02F0000E046EC00E056E7F0E066E4A
:10138E00880E076E4CEC04F000C065F001C066F0EC
:10139E0002C067F003C068F0000E046E000E056E0A
:1013AE00200E066E820E076E4CEC04F000C08BF021
:1013BE0001C08CF002C08DF003C08EF08BC061F0C6
:1013CE008CC062F08DC063F08EC064F08FC000F0F0
:1013DE0090C001F04ADD000E046E400E056E1C0E2C
:1013EE00066E8B0E076E75EC02F0000E046EC00ECC
:1013FE00056E7F0E066E880E076E4CEC04F000C074
:10140E005BF001C05CF002C05DF003C05EF0000E48
:10141E00046E000E056E200E066E820E076E4CECEC
:10142E0004F000C048F001C049F002C04AF003C009
:10143E004BF08BC004F08CC005F08DC006F08EC052
:10144E0007F009EC05F0000E046E000E056E000E9E
:10145E00066E800E076E4CEC04F000C044F001C026
:10146E0045F002C046F003C047F0E3EC03F0800EF7
:10147E00026E800E0118025C02E100501E0802E2AC
:10148E00838C19D044C004F045C005F046C006F068
:10149E0047C007F0000E006E000E016E480E026E81
:1014AE00830E036EB4EC01F0000ED8B0010E006E88
:1014BE000052D8A4839C83AC0CD0020E0001916F15
:1014CE000A0E926F150E936F000E946F46EC03F09A
:1014DE000BD00001020E916F0A0E926F190E936FD0
:1014EE00000E946F46EC03F061C091F062C092F072
:1014FE0063C093F064C094F04C0E956F000E966F1F
:10150E00C9DC4E6A48C091F049C092F04AC093F0CF
:10151E004BC094F07C0E956F000E966FBBDC7F6B0C
:10152E0044C091F045C092F046C093F047C094F08D
:10153E006D0E956F000E966FADDC44C000F045C089
:10154E0001F046C002F047C003F0E3EC03F0800E5A
:10155E00026E800E0118025C02E10050630802E286
:10156E00706B01D06F6B010E916F010E926F340E86
:10157E00936F000E946F46EC03F0010E916F0A0EFE
:10158E00926F6D0E936F000E946F46EC03F0010E8A
:10159E00916F0F0E926F420E936F000E946F46EC8A
:1015AE0003F0020E916F060E926F3E0E936F000EB9
:1015BE00946F46EC03F0080E0B6E7B0E0C6EFC0E59
:1015CE000D6E0D2EFED70C2EFCD70B2EFAD700006B
:0C15DE00010EA26F36EC00F0ACD6FFD777
:10161A0010EE15F02F0E006E010E016EEA0EF66E38
:0E162A00150EF76E000EF86E3EEC03F0120087
:0415EA004F6E200020
:0415EE004F4646001E
:0215F2000000F7
:0815F40048656C6C6F212100B9
:0215FC000000ED
:0415FE004E614E00EC
:0116020030B7
:021603003000B5
:04160500494E460004
:0A1609004176672E54656D703A00BB
:0416130046616E00BE
:0216170043008E
:020000040030CA
:0E000000000C1F1EFF8381FF0FC00FE00F409A
:00000001FF
